:020000040000FA
:200000008007D8050000000000000000000000001F008007DC0600000000000000000000F4
:20002000000000000000000000000000000000001F008007BC060000000000000000000058
:200040001F008007AC06000000000000000000001F0080079C060000000000000000000000
:200060001F0080078C06000000000000000000000000000000000000000000000000000048
:200080001F0080076C06000000000000000000001F0080075C060000000000000000000040
:2000A0001F0080074C06000000000000000000000000000000000000000000000000000048
:2000C0001F0080072C061F0080072606000000000000000000000000000000000000000076
:2000E0001F0080070C06000000000000000000001F008007FC0500000000000000000000A1
:200100001F008007EC05000000000000000000001F008007DC0500000000000000000000C1
:200120001F008007CC05000000000000000000001F008007BC0500000000000000000000E1
:200140001F008007AC05000000000000000000001F0080079C050000000000000000000001
:200160001F0080078C05000000000000000000001F0080077C050000000000000000000021
:200180001F0080076C05000000000000000000001F0080075C050000000000000000000041
:2001A0001F0080074C05000000000000000000001F0080073C050000000000000000000061
:2001C0001F0080072C05000000000000000000001F0080071C050000000000000000000081
:2001E0001F0080070C05000000000000000000001F008007FC0400000000000000000000A2
:20020000EE060000EE060000EE060000EE060000EE060000EE060000EE060000EE0600003E
:20022000EE060000EE060000EE060000EE060000EE060000EE060000EE060000EE0600001E
:20024000EE060000EE060000EE060000EE060000EE060000EE060000EE060000EE060000FE
:20026000EE060000EE060000EE060000EE060000EE060000EE060000EE060000EE060000DE
:20028000EE060000EE060000EE060000EE060000EE060000EE060000EE060000EE060000BE
:2002A000EE060000EE060000EE060000EE060000EE060000EE060000EE060000EE0600009E
:2002C000EE060000EE060000EE060000EE060000EE060000EE060000EE060000EE0600007E
:2002E000EE060000EE060000EE060000EE060000EE060000EE060000EE060000EE0600005E
:20030000EE060000EE060000EE060000EE060000EE060000EE060000EE060000EE0600003D
:20032000EE060000EE060000EE060000EE060000EE060000EE060000EE060000EE0600001D
:20034000EE060000EE060000EE060000EE060000EE060000EE060000EE060000EE060000FD
:20036000EE060000EE060000EE060000EE060000EE060000EE060000EE060000EE060000DD
:20038000EE060000EE060000EE060000EE060000EE060000EE060000EE060000EE060000BD
:2003A000EE060000EE060000EE060000EE060000EE060000EE060000EE060000EE0600009D
:2003C000EE060000EE0600000000000000000000EE060000EE060000EE060000EE06000065
:2003E000EE060000EE060000EE060000EE060000EE060000EE060000EE060000EE0600005D
:20040000EE060000EE060000EE060000EE060000EE060000EE060000EE060000EE0600003C
:20042000EE060000EE060000EE060000EE060000EE060000EE060000EE060000EE0600001C
:20044000EE060000EE060000EE060000EE060000EE060000EE060000EE060000EE060000FC
:20046000EE060000EE060000EE060000EE060000EE060000EE060000EE060000EE060000DC
:20048000EE060000EE060000EE060000EE060000EE060000EE060000EE060000EE060000BC
:2004A000EE060000EE060000EE060000EE060000EE060000EE060000EE060000EE0600009C
:2004C000EE060000EE060000EE060000EE060000EE060000EE060000EE060000EE0600007C
:2004E000EE060000EE060000EE060000EE060000EE060000EE060000EE060000EE0600005C
:20050000EE060000EE060000EE060000EE060000EE060000EE060000EE060000EE0600003B
:20052000EE060000EE060000EE060000EE060000EE060000EE060000EE060000EE0600001B
:20054000EE060000EE060000EE060000EE060000EE060000EE060000EE060000EE060000FB
:20056000EE060000EE060000EE060000EE060000EE060000EE060000EE060000EE060000DB
:20058000EE060000EE060000EE060000EE060000EE060000EE060000EE060000EE060000BB
:2005A000EE060000EE060000EE060000EE060000EE060000EE060000EE060000EE0600009B
:2005C000EE060000EE060000EE060000EE060000EE060000EE0600000010001800200028F3
:2005E0000030003800400048005000580060006800700078008000880090009800A000A83B
:2006000000B000B800C000C800D000D800E000E800F000F8E0072000E00F2000E017200065
:20062000E01F200040360100E62F200040360200E6372000E03F2000E0472000E04F200065
:20064000E0572000E05F200020362000E62F2000E06F2000E0772000E0872000E08F20003D
:20066000E0A72000E0E72000E0EF2000E0072008E00F2008E0172008E01F2008E027200862
:20068000E0372008E05F2008E0672008E0072010E0372010E03F2010E04720102406000017
:2006A000DFFE2506D8850000401EDFFE231EFC071C0A4119210600020000E12720082A064D
:2006C00000000000EA1F2008E55740002B06008000000B51EA2F2000E5574000405E01000C
:2006E0000B51EA2F200080FF04008007DA018505A0074D010182200EFF00A0070D09018211
:200700008007490981822016FFFB420980074F098182A00707090182C10EFFDFA0070D09FC
:200720000182A00707090182C10EFFEFA0070D090182A00707090182C10EFFFBA0070D093F
:200740000182A00707090182C10EFFF7A0070D090182A00707090182C10EFFBFA0070D0953
:200760000182A0074D010082200EFF00A0070D0900828007490980822016FFFB4209800736
:200780004F098082A00707090082C10EFFF9A0070D090082A0074D050082200EFF00A00771
:2007A0000D0D0082A007070D0082C10EDFFFA0070D0D008200007F00000AA505410A2206CA
:2007C000AC110400E209B3FD00007F00581A63FF050063EF0100A00707080082C10EFFF913
:2007E000A0070D080082A00707080182A10E0040A0070D080182A00707080182810E00206C
:20080000A0070D080182BFFFB2FFA00707080182A10E0040A0070D080182A007070801828A
:20082000810E0010A0070D080182BFFF8EFFA00707080182A10E0040A0070D080182A00781
:2008400007080182810E0004A0070D080182BFFF6AFFA00707080182A10E0040A0070D0829
:200860000182A00707080182810E0008A0070D080182BFFF46FFA00707080182A10E0040BB
:20088000A0070D08018200EA0000BFFF2EFFA00707080182A10E0040A0070D08018241EAB2
:2008A0009D006BEAB1F5A00707080082810E0006A0070D080082000023FF050023EF01005B
:2008C000481A7F005C1A63FF0100BFFF26FEBFFFFEFE0000BFFFE4FEA00707080182A10E3A
:0A08E0000040A0070D080182E5F5B5
:0400000500000000F7
:00000001FF
